:020000040000FA
:100000008000C2AF7597DE7597ADD2AF7830793288
:100010007A0476F60876FF187F0012001F80FE77BC
:100020000009770019E6FB08E6FC18EC5480600331
:10003000120111BA042A7E041200F51201027E0494
:100040001200F51201027E011200F51201027E017A
:100050001200F51201027E031200F5120102806AFD
:10006000BA03327E031200F51201027E021200F57D
:100070001201027E011200F51201027E011200F54A
:100080001201027E011200F51201027E011200F53A
:100090001201028035BA021A7E021200F512010224
:1000A0007E031200F51201027E011200F512010218
:1000B0008018BA01127E011200F51201027E0212AE
:1000C00000F5120102800312010208E61854806054
:1000D00012E7FB09E7FC19120111770009770019F3
:1000E0001201020809E66754807006EF548070011F
:1000F0002275D00422C3EB33FBEC33FC12010CDE7F
:10010000F422C3EB27F709EC37F71922E5D04FFFAC
:0D01100022C3EBF42401FBECF43400FC22CC
:00000001FF
